{
  "_format": "hh-sol-artifact-1",
  "contractName": "UnionsRegistry",
  "sourceName": "contracts/UnionsRegistry.sol",
  "abi": [
    {
      "inputs": [
        {
          "internalType": "contract ISemaphoreVerifier",
          "name": "_verifier",
          "type": "address"
        }
      ],
      "stateMutability": "nonpayable",
      "type": "constructor"
    },
    {
      "inputs": [],
      "name": "Semaphore__GroupAlreadyExists",
      "type": "error"
    },
    {
      "inputs": [],
      "name": "Semaphore__GroupDoesNotExist",
      "type": "error"
    },
    {
      "anonymous": false,
      "inputs": [
        {
          "indexed": true,
          "internalType": "uint256",
          "name": "groupId",
          "type": "uint256"
        },
        {
          "indexed": false,
          "internalType": "uint256",
          "name": "merkleTreeDepth",
          "type": "uint256"
        },
        {
          "indexed": false,
          "internalType": "uint256",
          "name": "zeroValue",
          "type": "uint256"
        }
      ],
      "name": "GroupCreated",
      "type": "event"
    },
    {
      "anonymous": false,
      "inputs": [
        {
          "indexed": true,
          "internalType": "uint256",
          "name": "groupId",
          "type": "uint256"
        },
        {
          "indexed": false,
          "internalType": "uint256",
          "name": "index",
          "type": "uint256"
        },
        {
          "indexed": false,
          "internalType": "uint256",
          "name": "identityCommitment",
          "type": "uint256"
        },
        {
          "indexed": false,
          "internalType": "uint256",
          "name": "merkleTreeRoot",
          "type": "uint256"
        }
      ],
      "name": "MemberAdded",
      "type": "event"
    },
    {
      "anonymous": false,
      "inputs": [
        {
          "indexed": true,
          "internalType": "uint256",
          "name": "groupId",
          "type": "uint256"
        },
        {
          "indexed": false,
          "internalType": "uint256",
          "name": "index",
          "type": "uint256"
        },
        {
          "indexed": false,
          "internalType": "uint256",
          "name": "identityCommitment",
          "type": "uint256"
        },
        {
          "indexed": false,
          "internalType": "uint256",
          "name": "merkleTreeRoot",
          "type": "uint256"
        }
      ],
      "name": "MemberRemoved",
      "type": "event"
    },
    {
      "anonymous": false,
      "inputs": [
        {
          "indexed": true,
          "internalType": "uint256",
          "name": "groupId",
          "type": "uint256"
        },
        {
          "indexed": false,
          "internalType": "uint256",
          "name": "index",
          "type": "uint256"
        },
        {
          "indexed": false,
          "internalType": "uint256",
          "name": "identityCommitment",
          "type": "uint256"
        },
        {
          "indexed": false,
          "internalType": "uint256",
          "name": "newIdentityCommitment",
          "type": "uint256"
        },
        {
          "indexed": false,
          "internalType": "uint256",
          "name": "merkleTreeRoot",
          "type": "uint256"
        }
      ],
      "name": "MemberUpdated",
      "type": "event"
    },
    {
      "inputs": [
        {
          "internalType": "uint256",
          "name": "groupId",
          "type": "uint256"
        },
        {
          "internalType": "uint256",
          "name": "member",
          "type": "uint256"
        },
        {
          "internalType": "uint256",
          "name": "inviteNullifierHash",
          "type": "uint256"
        },
        {
          "internalType": "uint256",
          "name": "joinNullifierHash",
          "type": "uint256"
        },
        {
          "internalType": "uint256[8]",
          "name": "inviteProof",
          "type": "uint256[8]"
        },
        {
          "internalType": "uint256[8]",
          "name": "joinProof",
          "type": "uint256[8]"
        }
      ],
      "name": "addMember",
      "outputs": [],
      "stateMutability": "nonpayable",
      "type": "function"
    },
    {
      "inputs": [
        {
          "internalType": "uint256",
          "name": "groupId",
          "type": "uint256"
        },
        {
          "internalType": "uint256",
          "name": "creator",
          "type": "uint256"
        }
      ],
      "name": "createGroup",
      "outputs": [],
      "stateMutability": "nonpayable",
      "type": "function"
    },
    {
      "inputs": [],
      "name": "depth",
      "outputs": [
        {
          "internalType": "uint256",
          "name": "",
          "type": "uint256"
        }
      ],
      "stateMutability": "view",
      "type": "function"
    },
    {
      "inputs": [
        {
          "internalType": "uint256",
          "name": "groupId",
          "type": "uint256"
        }
      ],
      "name": "getMerkleTreeDepth",
      "outputs": [
        {
          "internalType": "uint256",
          "name": "",
          "type": "uint256"
        }
      ],
      "stateMutability": "view",
      "type": "function"
    },
    {
      "inputs": [
        {
          "internalType": "uint256",
          "name": "groupId",
          "type": "uint256"
        }
      ],
      "name": "getMerkleTreeRoot",
      "outputs": [
        {
          "internalType": "uint256",
          "name": "",
          "type": "uint256"
        }
      ],
      "stateMutability": "view",
      "type": "function"
    },
    {
      "inputs": [
        {
          "internalType": "uint256",
          "name": "groupId",
          "type": "uint256"
        }
      ],
      "name": "getNumberOfMerkleTreeLeaves",
      "outputs": [
        {
          "internalType": "uint256",
          "name": "",
          "type": "uint256"
        }
      ],
      "stateMutability": "view",
      "type": "function"
    },
    {
      "inputs": [
        {
          "internalType": "uint256",
          "name": "",
          "type": "uint256"
        }
      ],
      "name": "nullifierHashes",
      "outputs": [
        {
          "internalType": "bool",
          "name": "",
          "type": "bool"
        }
      ],
      "stateMutability": "view",
      "type": "function"
    },
    {
      "inputs": [],
      "name": "verifier",
      "outputs": [
        {
          "internalType": "contract ISemaphoreVerifier",
          "name": "",
          "type": "address"
        }
      ],
      "stateMutability": "view",
      "type": "function"
    }
  ],
  "bytecode": "0x6080604052602060025534801561001557600080fd5b50604051610d9d380380610d9d83398181016040528101906100379190610093565b80600160006101000a81548173ffffffffffffffffffffffffffffffffffffffff021916908373ffffffffffffffffffffffffffffffffffffffff16021790555050610117565b60008151905061008d81610100565b92915050565b6000602082840312156100a557600080fd5b60006100b38482850161007e565b91505092915050565b60006100c7826100e0565b9050919050565b60006100d9826100bc565b9050919050565b600073ffffffffffffffffffffffffffffffffffffffff82169050919050565b610109816100ce565b811461011457600080fd5b50565b610c77806101266000396000f3fe608060405234801561001057600080fd5b50600436106100885760003560e01c8063638480be1161005b578063638480be146101155780636389e10714610145578063980cb3ac14610175578063dabc4d511461019157610088565b80631f79a1e91461008d5780632b7ac3f3146100bd57806359cc06db146100db578063631c56ef146100f7575b600080fd5b6100a760048036038101906100a29190610781565b6101c1565b6040516100b4919061093d565b60405180910390f35b6100c56101e1565b6040516100d29190610958565b60405180910390f35b6100f560048036038101906100f091906107e6565b610207565b005b6100ff61046f565b60405161010c9190610a13565b60405180910390f35b61012f600480360381019061012a9190610781565b610475565b60405161013c9190610a13565b60405180910390f35b61015f600480360381019061015a9190610781565b610494565b60405161016c9190610a13565b60405180910390f35b61018f600480360381019061018a91906107aa565b6104b3565b005b6101ab60048036038101906101a69190610781565b6104d7565b6040516101b89190610a13565b60405180910390f35b60036020528060005260406000206000915054906101000a900460ff1681565b600160009054906101000a900473ffffffffffffffffffffffffffffffffffffffff1681565b6003600085815260200190815260200160002060009054906101000a900460ff1615610268576040517f08c379a000000000000000000000000000000000000000000000000000000000815260040161025f90610973565b60405180910390fd5b6003600084815260200190815260200160002060009054906101000a900460ff16156102c9576040517f08c379a00000000000000000000000000000000000000000000000000000000081526004016102c090610993565b60405180910390fd5b60006102d4876104d7565b9050600160009054906101000a900473ffffffffffffffffffffffffffffffffffffffff1673ffffffffffffffffffffffffffffffffffffffff16639aca8f2a8287898b886002546040518763ffffffff1660e01b815260040161033d96959493929190610a8e565b60006040518083038186803b15801561035557600080fd5b505afa158015610369573d6000803e3d6000fd5b50505050600160009054906101000a900473ffffffffffffffffffffffffffffffffffffffff1673ffffffffffffffffffffffffffffffffffffffff16639aca8f2a82868a8b876002546040518763ffffffff1660e01b81526004016103d496959493929190610a8e565b60006040518083038186803b1580156103ec57600080fd5b505afa158015610400573d6000803e3d6000fd5b5050505060016003600087815260200190815260200160002060006101000a81548160ff02191690831515021790555060016003600086815260200190815260200160002060006101000a81548160ff02191690831515021790555061046687876104f6565b50505050505050565b60025481565b6000806000838152602001908152602001600020600201549050919050565b6000806000838152602001908152602001600020600001549050919050565b6104bf8260025461061d565b6104c982826104f6565b6104d382826104f6565b5050565b6000806000838152602001908152602001600020600101549050919050565b600061050183610494565b1415610539576040517f029f057900000000000000000000000000000000000000000000000000000000815260040160405180910390fd5b60008083815260200190815260200160002073__$0c6eb7207c37accf1552a1c47686411ac0$__63168703fa9091836040518363ffffffff1660e01b81526004016105859291906109b3565b60006040518083038186803b15801561059d57600080fd5b505af41580156105b1573d6000803e3d6000fd5b5050505060006105c0836104d7565b9050600060016105cf85610475565b6105d99190610b02565b9050837f19239b3f93cd10558aaf11423af70c77763bf54f52bcc75bfa74d4d13548cde982858560405161060f93929190610a57565b60405180910390a250505050565b600061062883610494565b1461065f576040517f8121725b00000000000000000000000000000000000000000000000000000000815260040160405180910390fd5b60006008836040516020016106749190610922565b6040516020818303038152906040528051906020012060001c901c905060008084815260200190815260200160002073__$0c6eb7207c37accf1552a1c47686411ac0$__631095fbb4909184846040518463ffffffff1660e01b81526004016106df939291906109dc565b60006040518083038186803b1580156106f757600080fd5b505af415801561070b573d6000803e3d6000fd5b50505050827f0d000126c26c1bbe400fd2332187f75d58b69306f9ec47b408686189d3a008338383604051610741929190610a2e565b60405180910390a2505050565b60008190508260206008028201111561076657600080fd5b92915050565b60008135905061077b81610c2a565b92915050565b60006020828403121561079357600080fd5b60006107a18482850161076c565b91505092915050565b600080604083850312156107bd57600080fd5b60006107cb8582860161076c565b92505060206107dc8582860161076c565b9150509250929050565b600080600080600080610280878903121561080057600080fd5b600061080e89828a0161076c565b965050602061081f89828a0161076c565b955050604061083089828a0161076c565b945050606061084189828a0161076c565b935050608061085289828a0161074e565b92505061018061086489828a0161074e565b9150509295509295509295565b61087e6101008383610b90565b5050565b61088b81610b36565b82525050565b61089a81610b6c565b82525050565b60006108ad601383610af1565b91506108b882610bd8565b602082019050919050565b60006108d0601983610af1565b91506108db82610c01565b602082019050919050565b8082525050565b6108f681610b62565b82525050565b61090581610b62565b82525050565b61091c61091782610b62565b610b9f565b82525050565b600061092e828461090b565b60208201915081905092915050565b60006020820190506109526000830184610882565b92915050565b600060208201905061096d6000830184610891565b92915050565b6000602082019050818103600083015261098c816108a0565b9050919050565b600060208201905081810360008301526109ac816108c3565b9050919050565b60006040820190506109c860008301856108e6565b6109d560208301846108fc565b9392505050565b60006060820190506109f160008301866108e6565b6109fe60208301856108fc565b610a0b60408301846108fc565b949350505050565b6000602082019050610a2860008301846108ed565b92915050565b6000604082019050610a4360008301856108ed565b610a5060208301846108ed565b9392505050565b6000606082019050610a6c60008301866108ed565b610a7960208301856108ed565b610a8660408301846108ed565b949350505050565b60006101a082019050610aa460008301896108ed565b610ab160208301886108ed565b610abe60408301876108ed565b610acb60608301866108ed565b610ad86080830185610871565b610ae66101808301846108ed565b979650505050505050565b600082825260208201905092915050565b6000610b0d82610b62565b9150610b1883610b62565b925082821015610b2b57610b2a610ba9565b5b828203905092915050565b60008115159050919050565b600073ffffffffffffffffffffffffffffffffffffffff82169050919050565b6000819050919050565b6000610b7782610b7e565b9050919050565b6000610b8982610b42565b9050919050565b82818337600083830152505050565b6000819050919050565b7f4e487b7100000000000000000000000000000000000000000000000000000000600052601160045260246000fd5b7f496e7669746520616c7265616479207573656400000000000000000000000000600082015250565b7f4a6f696e207265717565737420616c7265616479207573656400000000000000600082015250565b610c3381610b62565b8114610c3e57600080fd5b5056fea2646970667358221220ec4c858c95747b6aaac3042027a530889e4df49ad1698eecc04068c4480a800d64736f6c63430008040033",
  "linkReferences": {
    "@zk-kit/incremental-merkle-tree.sol/IncrementalBinaryTree.sol": {
      "IncrementalBinaryTree": [
        {
          "length": 20,
          "start": 1651
        },
        {
          "length": 20,
          "start": 1995
        }
      ]
    }
  },
  "deployedLinkReferences": {
    "@zk-kit/incremental-merkle-tree.sol/IncrementalBinaryTree.sol": {
      "IncrementalBinaryTree": [
        {
          "length": 20,
          "start": 1357
        },
        {
          "length": 20,
          "start": 1701
        }
      ]
    }
  }
}